{"abi":[{"type":"constructor","inputs":[{"name":"feeBps","type":"uint256","internalType":"uint256"},{"name":"treasury","type":"address","internalType":"address"},{"name":"usdc","type":"address","internalType":"contract IERC20"}],"stateMutability":"nonpayable"},{"type":"function","name":"BPS_DENOMINATOR","inputs":[],"outputs":[{"name":"","type":"uint256","internalType":"uint256"}],"stateMutability":"view"},{"type":"function","name":"FEE_BPS","inputs":[],"outputs":[{"name":"","type":"uint256","internalType":"uint256"}],"stateMutability":"view"},{"type":"function","name":"TREASURY","inputs":[],"outputs":[{"name":"","type":"address","internalType":"address"}],"stateMutability":"view"},{"type":"function","name":"USDC","inputs":[],"outputs":[{"name":"","type":"address","internalType":"contract IERC20"}],"stateMutability":"view"},{"type":"function","name":"donate","inputs":[{"name":"streamer","type":"address","internalType":"address"},{"name":"gross","type":"uint256","internalType":"uint256"}],"outputs":[],"stateMutability":"nonpayable"},{"type":"function","name":"donateWithPermit","inputs":[{"name":"streamer","type":"address","internalType":"address"},{"name":"gross","type":"uint256","internalType":"uint256"},{"name":"deadline","type":"uint256","internalType":"uint256"},{"name":"v","type":"uint8","internalType":"uint8"},{"name":"r","type":"bytes32","internalType":"bytes32"},{"name":"s","type":"bytes32","internalType":"bytes32"}],"outputs":[],"stateMutability":"nonpayable"},{"type":"event","name":"Settled","inputs":[{"name":"payer","type":"address","indexed":true,"internalType":"address"},{"name":"streamer","type":"address","indexed":true,"internalType":"address"},{"name":"gross","type":"uint256","indexed":false,"internalType":"uint256"},{"name":"fee","type":"uint256","indexed":false,"internalType":"uint256"}],"anonymous":false},{"type":"error","name":"BelowFeeFloor","inputs":[]},{"type":"error","name":"SafeERC20FailedOperation","inputs":[{"name":"token","type":"address","internalType":"address"}]}],"bytecode":{"object":"0x60e060405234801561000f575f5ffd5b506040516106a13803806106a183398101604081905261002e9161013e565b5f8311801561003e575061271083105b6100825760405162461bcd60e51b815260206004820152601060248201526f666565206f7574206f662072616e676560801b60448201526064015b60405180910390fd5b6001600160a01b0382166100c85760405162461bcd60e51b815260206004820152600d60248201526c7a65726f20747265617375727960981b6044820152606401610079565b6001600160a01b03811661010a5760405162461bcd60e51b81526020600482015260096024820152687a65726f207573646360b81b6044820152606401610079565b6080929092526001600160a01b0390811660a0521660c05261017e565b6001600160a01b038116811461013b575f5ffd5b50565b5f5f5f60608486031215610150575f5ffd5b83519250602084015161016281610127565b604085015190925061017381610127565b809150509250925092565b60805160a05160c0516104d96101c85f395f818160ad0152818161017501528181610263015261029801525f8181606901526102bb01525f818160e901526101f901526104d95ff3fe608060405234801561000f575f5ffd5b5060043610610060575f3560e01c80632d2c55651461006457806389a30271146100a8578063ba226c54146100cf578063bf333f2c146100e4578063e1a4521814610119578063e69d849d14610122575b5f5ffd5b61008b7f000000000000000000000000000000000000000000000000000000000000000081565b6040516001600160a01b0390911681526020015b60405180910390f35b61008b7f000000000000000000000000000000000000000000000000000000000000000081565b6100e26100dd3660046103f3565b610135565b005b61010b7f000000000000000000000000000000000000000000000000000000000000000081565b60405190815260200161009f565b61010b61271081565b6100e261013036600461044e565b6101e2565b60405163d505accf60e01b8152336004820152306024820152604481018690526064810185905260ff8416608482015260a4810183905260c481018290527f00000000000000000000000000000000000000000000000000000000000000006001600160a01b03169063d505accf9060e4015f604051808303815f87803b1580156101be575f5ffd5b505af19250505080156101cf575060015b506101da86866101f0565b505050505050565b6101ec82826101f0565b5050565b5f61271061021e7f00000000000000000000000000000000000000000000000000000000000000008461048a565b61022891906104a7565b9050805f0361024a57604051631749f44560e01b815260040160405180910390fd5b61028b338461025984866104c6565b6001600160a01b037f00000000000000000000000000000000000000000000000000000000000000001692919061032b565b6102e06001600160a01b037f000000000000000000000000000000000000000000000000000000000000000016337f00000000000000000000000000000000000000000000000000000000000000008461032b565b60408051838152602081018390526001600160a01b0385169133917f16c41a749cf94bd479b1fc5d82a6eb4557d71262f15dc382d2cf6f1eb3d68e8e910160405180910390a3505050565b61033984848484600161036b565b61036557604051635274afe760e01b81526001600160a01b038516600482015260240160405180910390fd5b50505050565b6040516323b872dd60e01b5f8181526001600160a01b038781166004528616602452604485905291602083606481808c5af1925060015f511483166103c75783831516156103bb573d5f823e3d81fd5b5f883b113d1516831692505b604052505f60605295945050505050565b80356001600160a01b03811681146103ee575f5ffd5b919050565b5f5f5f5f5f5f60c08789031215610408575f5ffd5b610411876103d8565b95506020870135945060408701359350606087013560ff81168114610434575f5ffd5b9598949750929560808101359460a0909101359350915050565b5f5f6040838503121561045f575f5ffd5b610468836103d8565b946020939093013593505050565b634e487b7160e01b5f52601160045260245ffd5b80820281158282048414176104a1576104a1610476565b92915050565b5f826104c157634e487b7160e01b5f52601260045260245ffd5b500490565b818103818111156104a1576104a161047656","linkReferences":{}},"methodIdentifiers":{"BPS_DENOMINATOR()":"e1a45218","FEE_BPS()":"bf333f2c","TREASURY()":"2d2c5565","USDC()":"89a30271","donate(address,uint256)":"e69d849d","donateWithPermit(address,uint256,uint256,uint8,bytes32,bytes32)":"ba226c54"},"id":44}